{
  "address": "0x9fE46736679d2D9a65F0992F2272dE9f3c7fa6e0",
  "abi": [
    {
      "inputs": [
        {
          "internalType": "address",
          "name": "_nftAddress",
          "type": "address"
        },
        {
          "internalType": "address payable",
          "name": "_seller",
          "type": "address"
        },
        {
          "internalType": "address",
          "name": "_inspector",
          "type": "address"
        },
        {
          "internalType": "address",
          "name": "_lender",
          "type": "address"
        }
      ],
      "stateMutability": "nonpayable",
      "type": "constructor"
    },
    {
      "inputs": [
        {
          "internalType": "uint256",
          "name": "",
          "type": "uint256"
        },
        {
          "internalType": "address",
          "name": "",
          "type": "address"
        }
      ],
      "name": "approval",
      "outputs": [
        {
          "internalType": "bool",
          "name": "",
          "type": "bool"
        }
      ],
      "stateMutability": "view",
      "type": "function"
    },
    {
      "inputs": [
        {
          "internalType": "uint256",
          "name": "nftId",
          "type": "uint256"
        }
      ],
      "name": "approveSale",
      "outputs": [],
      "stateMutability": "nonpayable",
      "type": "function"
    },
    {
      "inputs": [
        {
          "internalType": "uint256",
          "name": "",
          "type": "uint256"
        }
      ],
      "name": "buyer",
      "outputs": [
        {
          "internalType": "address",
          "name": "",
          "type": "address"
        }
      ],
      "stateMutability": "view",
      "type": "function"
    },
    {
      "inputs": [
        {
          "internalType": "uint256",
          "name": "nftId",
          "type": "uint256"
        }
      ],
      "name": "cancelSale",
      "outputs": [],
      "stateMutability": "nonpayable",
      "type": "function"
    },
    {
      "inputs": [
        {
          "internalType": "uint256",
          "name": "nftId",
          "type": "uint256"
        }
      ],
      "name": "deposition",
      "outputs": [],
      "stateMutability": "payable",
      "type": "function"
    },
    {
      "inputs": [
        {
          "internalType": "uint256",
          "name": "nftId",
          "type": "uint256"
        }
      ],
      "name": "finalizeSale",
      "outputs": [],
      "stateMutability": "nonpayable",
      "type": "function"
    },
    {
      "inputs": [],
      "name": "getEngineContract",
      "outputs": [
        {
          "internalType": "address",
          "name": "",
          "type": "address"
        }
      ],
      "stateMutability": "view",
      "type": "function"
    },
    {
      "inputs": [],
      "name": "getInspector",
      "outputs": [
        {
          "internalType": "address",
          "name": "",
          "type": "address"
        }
      ],
      "stateMutability": "view",
      "type": "function"
    },
    {
      "inputs": [],
      "name": "getLender",
      "outputs": [
        {
          "internalType": "address",
          "name": "",
          "type": "address"
        }
      ],
      "stateMutability": "view",
      "type": "function"
    },
    {
      "inputs": [],
      "name": "getSeller",
      "outputs": [
        {
          "internalType": "address",
          "name": "",
          "type": "address"
        }
      ],
      "stateMutability": "view",
      "type": "function"
    },
    {
      "inputs": [
        {
          "internalType": "uint256",
          "name": "",
          "type": "uint256"
        }
      ],
      "name": "inspectionPassed",
      "outputs": [
        {
          "internalType": "bool",
          "name": "",
          "type": "bool"
        }
      ],
      "stateMutability": "view",
      "type": "function"
    },
    {
      "inputs": [
        {
          "internalType": "uint256",
          "name": "",
          "type": "uint256"
        }
      ],
      "name": "isListed",
      "outputs": [
        {
          "internalType": "bool",
          "name": "",
          "type": "bool"
        }
      ],
      "stateMutability": "view",
      "type": "function"
    },
    {
      "inputs": [
        {
          "internalType": "uint256",
          "name": "nftId",
          "type": "uint256"
        },
        {
          "internalType": "uint256",
          "name": "_purchasePrice",
          "type": "uint256"
        },
        {
          "internalType": "uint256",
          "name": "_whatItCosts",
          "type": "uint256"
        },
        {
          "internalType": "address",
          "name": "_buyer",
          "type": "address"
        }
      ],
      "name": "list",
      "outputs": [],
      "stateMutability": "nonpayable",
      "type": "function"
    },
    {
      "inputs": [],
      "name": "nftAddress",
      "outputs": [
        {
          "internalType": "address",
          "name": "",
          "type": "address"
        }
      ],
      "stateMutability": "view",
      "type": "function"
    },
    {
      "inputs": [
        {
          "internalType": "uint256",
          "name": "",
          "type": "uint256"
        }
      ],
      "name": "purchasePrice",
      "outputs": [
        {
          "internalType": "uint256",
          "name": "",
          "type": "uint256"
        }
      ],
      "stateMutability": "view",
      "type": "function"
    },
    {
      "inputs": [],
      "name": "seller",
      "outputs": [
        {
          "internalType": "address",
          "name": "",
          "type": "address"
        }
      ],
      "stateMutability": "view",
      "type": "function"
    },
    {
      "inputs": [
        {
          "internalType": "uint256",
          "name": "nftId",
          "type": "uint256"
        }
      ],
      "name": "updateInspectionPassed",
      "outputs": [],
      "stateMutability": "view",
      "type": "function"
    },
    {
      "inputs": [
        {
          "internalType": "uint256",
          "name": "",
          "type": "uint256"
        }
      ],
      "name": "whatItCosts",
      "outputs": [
        {
          "internalType": "uint256",
          "name": "",
          "type": "uint256"
        }
      ],
      "stateMutability": "view",
      "type": "function"
    },
    {
      "stateMutability": "payable",
      "type": "receive"
    }
  ],
  "transactionHash": "0x2cfa870e97fbd70f15414e64e573ec318a207937ce71c1ef2be0e935540ff496",
  "args": [
    "0x5FbDB2315678afecb367f032d93F642f64180aa3",
    "0xf39Fd6e51aad88F6F4ce6aB8827279cffFb92266",
    "0x3C44CdDdB6a900fa2b585dd299e03d12FA4293BC",
    "0x90F79bf6EB2c4f870365E785982E1f101E93b906"
  ],
  "numDeployments": 1,
  "solcInputHash": "08c3f5d77e3464b6a8b3fb10ee7d0c58",
  "bytecode": "0x60806040523480156200001157600080fd5b5060405162001a2e38038062001a2e8339818101604052810190620000379190620001f3565b836000806101000a81548173ffffffffffffffffffffffffffffffffffffffff021916908373ffffffffffffffffffffffffffffffffffffffff16021790555082600160006101000a81548173ffffffffffffffffffffffffffffffffffffffff021916908373ffffffffffffffffffffffffffffffffffffffff16021790555081600360006101000a81548173ffffffffffffffffffffffffffffffffffffffff021916908373ffffffffffffffffffffffffffffffffffffffff16021790555080600260006101000a81548173ffffffffffffffffffffffffffffffffffffffff021916908373ffffffffffffffffffffffffffffffffffffffff1602179055505050505062000265565b600080fd5b600073ffffffffffffffffffffffffffffffffffffffff82169050919050565b6000620001768262000149565b9050919050565b620001888162000169565b81146200019457600080fd5b50565b600081519050620001a8816200017d565b92915050565b6000620001bb8262000149565b9050919050565b620001cd81620001ae565b8114620001d957600080fd5b50565b600081519050620001ed81620001c2565b92915050565b6000806000806080858703121562000210576200020f62000144565b5b6000620002208782880162000197565b94505060206200023387828801620001dc565b9350506040620002468782880162000197565b9250506060620002598782880162000197565b91505092959194509250565b6117b980620002756000396000f3fe60806040526004361061010d5760003560e01c80639682193811610095578063aa92938011610064578063aa9293801461037b578063b848de35146103a4578063bd94b005146103e1578063dbd0e1b61461040a578063fcce48831461043557610114565b806396821938146102bf5780639861f3e5146102fc5780639aa7b810146103275780639c0536d81461035057610114565b80635bf8633a116100dc5780635bf8633a146101d35780635eed5fff146101fe57806364a69b8e1461023b57806377fbc4ae14610257578063859e6e341461029457610114565b806308551a531461011957806314a72feb1461014457806323dc96801461016d5780634dd4acaf1461019657610114565b3661011457005b600080fd5b34801561012557600080fd5b5061012e610472565b60405161013b91906111b6565b60405180910390f35b34801561015057600080fd5b5061016b6004803603810190610166919061120c565b610498565b005b34801561017957600080fd5b50610194600480360381019061018f919061120c565b610504565b005b3480156101a257600080fd5b506101bd60048036038101906101b8919061120c565b6105fe565b6040516101ca91906111b6565b60405180910390f35b3480156101df57600080fd5b506101e8610631565b6040516101f591906111b6565b60405180910390f35b34801561020a57600080fd5b506102256004803603810190610220919061120c565b610655565b6040516102329190611254565b60405180910390f35b6102556004803603810190610250919061120c565b610675565b005b34801561026357600080fd5b5061027e6004803603810190610279919061120c565b610771565b60405161028b919061127e565b60405180910390f35b3480156102a057600080fd5b506102a9610789565b6040516102b691906111b6565b60405180910390f35b3480156102cb57600080fd5b506102e660048036038101906102e1919061120c565b6107b3565b6040516102f3919061127e565b60405180910390f35b34801561030857600080fd5b506103116107cb565b60405161031e91906111b6565b60405180910390f35b34801561033357600080fd5b5061034e600480360381019061034991906112c5565b6107f5565b005b34801561035c57600080fd5b50610365610a5d565b60405161037291906111b6565b60405180910390f35b34801561038757600080fd5b506103a2600480360381019061039d919061120c565b610a86565b005b3480156103b057600080fd5b506103cb60048036038101906103c6919061132c565b610f84565b6040516103d89190611254565b60405180910390f35b3480156103ed57600080fd5b506104086004803603810190610403919061120c565b610fb3565b005b34801561041657600080fd5b5061041f61112b565b60405161042c91906111b6565b60405180910390f35b34801561044157600080fd5b5061045c6004803603810190610457919061120c565b611155565b6040516104699190611254565b60405180910390f35b600160009054906101000a900473ffffffffffffffffffffffffffffffffffffffff1681565b60016008600083815260200190815260200160002060003373ffffffffffffffffffffffffffffffffffffffff1673ffffffffffffffffffffffffffffffffffffffff16815260200190815260200160002060006101000a81548160ff02191690831515021790555050565b600360009054906101000a900473ffffffffffffffffffffffffffffffffffffffff1673ffffffffffffffffffffffffffffffffffffffff163373ffffffffffffffffffffffffffffffffffffffff1614610594576040517f08c379a000000000000000000000000000000000000000000000000000000000815260040161058b906113c9565b60405180910390fd5b600115156009600083815260200190815260200160002060009054906101000a900460ff161515146105fb576040517f08c379a00000000000000000000000000000000000000000000000000000000081526004016105f290611435565b60405180910390fd5b50565b60046020528060005260406000206000915054906101000a900473ffffffffffffffffffffffffffffffffffffffff1681565b60008054906101000a900473ffffffffffffffffffffffffffffffffffffffff1681565b60096020528060005260406000206000915054906101000a900460ff1681565b806004600082815260200190815260200160002060009054906101000a900473ffffffffffffffffffffffffffffffffffffffff1673ffffffffffffffffffffffffffffffffffffffff163373ffffffffffffffffffffffffffffffffffffffff1614610717576040517f08c379a000000000000000000000000000000000000000000000000000000000815260040161070e906114a1565b60405180910390fd5b600660008381526020019081526020016000205434101561076d576040517f08c379a00000000000000000000000000000000000000000000000000000000081526004016107649061150d565b60405180910390fd5b5050565b60056020528060005260406000206000915090505481565b6000600360009054906101000a900473ffffffffffffffffffffffffffffffffffffffff16905090565b60066020528060005260406000206000915090505481565b6000600260009054906101000a900473ffffffffffffffffffffffffffffffffffffffff16905090565b600160009054906101000a900473ffffffffffffffffffffffffffffffffffffffff1673ffffffffffffffffffffffffffffffffffffffff163373ffffffffffffffffffffffffffffffffffffffff1614610885576040517f08c379a000000000000000000000000000000000000000000000000000000000815260040161087c90611579565b60405180910390fd5b60008054906101000a900473ffffffffffffffffffffffffffffffffffffffff1673ffffffffffffffffffffffffffffffffffffffff166323b872dd3330876040518463ffffffff1660e01b81526004016108e293929190611599565b600060405180830381600087803b1580156108fc57600080fd5b505af1158015610910573d6000803e3d6000fd5b5050505060016007600086815260200190815260200160002060006101000a81548160ff02191690831515021790555082600560008681526020019081526020016000208190555081600660008681526020019081526020016000208190555060016008600086815260200190815260200160002060003373ffffffffffffffffffffffffffffffffffffffff1673ffffffffffffffffffffffffffffffffffffffff16815260200190815260200160002060006101000a81548160ff021916908315150217905550806004600086815260200190815260200160002060006101000a81548173ffffffffffffffffffffffffffffffffffffffff021916908373ffffffffffffffffffffffffffffffffffffffff16021790555060016009600086815260200190815260200160002060006101000a81548160ff02191690831515021790555050505050565b60008060009054906101000a900473ffffffffffffffffffffffffffffffffffffffff16905090565b600115156009600083815260200190815260200160002060009054906101000a900460ff16151514610ab757600080fd5b4760056000838152602001908152602001600020541015610ad757600080fd5b60011515600860008381526020019081526020016000206000600160009054906101000a900473ffffffffffffffffffffffffffffffffffffffff1673ffffffffffffffffffffffffffffffffffffffff1673ffffffffffffffffffffffffffffffffffffffff16815260200190815260200160002060009054906101000a900460ff16151514610b9d576040517f08c379a0000000000000000000000000000000000000000000000000000000008152600401610b949061161c565b60405180910390fd5b600115156008600083815260200190815260200160002060006004600085815260200190815260200160002060009054906101000a900473ffffffffffffffffffffffffffffffffffffffff1673ffffffffffffffffffffffffffffffffffffffff1673ffffffffffffffffffffffffffffffffffffffff16815260200190815260200160002060009054906101000a900460ff16151514610c74576040517f08c379a0000000000000000000000000000000000000000000000000000000008152600401610c6b90611688565b60405180910390fd5b60011515600860008381526020019081526020016000206000600260009054906101000a900473ffffffffffffffffffffffffffffffffffffffff1673ffffffffffffffffffffffffffffffffffffffff1673ffffffffffffffffffffffffffffffffffffffff16815260200190815260200160002060009054906101000a900460ff16151514610d3a576040517f08c379a0000000000000000000000000000000000000000000000000000000008152600401610d31906116f4565b60405180910390fd5b60006007600083815260200190815260200160002060006101000a81548160ff0219169083151502179055506000600160009054906101000a900473ffffffffffffffffffffffffffffffffffffffff1673ffffffffffffffffffffffffffffffffffffffff1647604051610dae90611745565b60006040518083038185875af1925050503d8060008114610deb576040519150601f19603f3d011682016040523d82523d6000602084013e610df0565b606091505b5050905080610dfe57600080fd5b60008054906101000a900473ffffffffffffffffffffffffffffffffffffffff1673ffffffffffffffffffffffffffffffffffffffff1663095ea7b36004600085815260200190815260200160002060009054906101000a900473ffffffffffffffffffffffffffffffffffffffff16846040518363ffffffff1660e01b8152600401610e8c92919061175a565b600060405180830381600087803b158015610ea657600080fd5b505af1158015610eba573d6000803e3d6000fd5b5050505060008054906101000a900473ffffffffffffffffffffffffffffffffffffffff1673ffffffffffffffffffffffffffffffffffffffff166323b872dd306004600086815260200190815260200160002060009054906101000a900473ffffffffffffffffffffffffffffffffffffffff16856040518463ffffffff1660e01b8152600401610f4e93929190611599565b600060405180830381600087803b158015610f6857600080fd5b505af1158015610f7c573d6000803e3d6000fd5b505050505050565b60086020528160005260406000206020528060005260406000206000915091509054906101000a900460ff1681565b600015156009600083815260200190815260200160002060009054906101000a900460ff1615150361108e5760006004600083815260200190815260200160002060009054906101000a900473ffffffffffffffffffffffffffffffffffffffff1673ffffffffffffffffffffffffffffffffffffffff164760405161103890611745565b60006040518083038185875af1925050503d8060008114611075576040519150601f19603f3d011682016040523d82523d6000602084013e61107a565b606091505b505090508061108857600080fd5b50611128565b6000600160009054906101000a900473ffffffffffffffffffffffffffffffffffffffff1673ffffffffffffffffffffffffffffffffffffffff16476040516110d690611745565b60006040518083038185875af1925050503d8060008114611113576040519150601f19603f3d011682016040523d82523d6000602084013e611118565b606091505b505090508061112657600080fd5b505b50565b6000600160009054906101000a900473ffffffffffffffffffffffffffffffffffffffff16905090565b60076020528060005260406000206000915054906101000a900460ff1681565b600073ffffffffffffffffffffffffffffffffffffffff82169050919050565b60006111a082611175565b9050919050565b6111b081611195565b82525050565b60006020820190506111cb60008301846111a7565b92915050565b600080fd5b6000819050919050565b6111e9816111d6565b81146111f457600080fd5b50565b600081359050611206816111e0565b92915050565b600060208284031215611222576112216111d1565b5b6000611230848285016111f7565b91505092915050565b60008115159050919050565b61124e81611239565b82525050565b60006020820190506112696000830184611245565b92915050565b611278816111d6565b82525050565b6000602082019050611293600083018461126f565b92915050565b6112a281611195565b81146112ad57600080fd5b50565b6000813590506112bf81611299565b92915050565b600080600080608085870312156112df576112de6111d1565b5b60006112ed878288016111f7565b94505060206112fe878288016111f7565b935050604061130f878288016111f7565b9250506060611320878288016112b0565b91505092959194509250565b60008060408385031215611343576113426111d1565b5b6000611351858286016111f7565b9250506020611362858286016112b0565b9150509250929050565b600082825260208201905092915050565b7f6f6e6c7920696e73706563746f722063616e2063616c6c2066756e6374696f6e600082015250565b60006113b360208361136c565b91506113be8261137d565b602082019050919050565b600060208201905081810360008301526113e2816113a6565b9050919050565b7f696e7370656374696f6e206661696c6564000000000000000000000000000000600082015250565b600061141f60118361136c565b915061142a826113e9565b602082019050919050565b6000602082019050818103600083015261144e81611412565b9050919050565b7f6f6e6c792062757965722063616e2063616c6c2066756e6374696f6e00000000600082015250565b600061148b601c8361136c565b915061149682611455565b602082019050919050565b600060208201905081810360008301526114ba8161147e565b9050919050565b7f696e73756666696369656e7420616d6f756e74206465706f7369746564000000600082015250565b60006114f7601d8361136c565b9150611502826114c1565b602082019050919050565b60006020820190508181036000830152611526816114ea565b9050919050565b7f6f6e6c792073656c6c65722063616e2063616c6c2066756e6374696f6e000000600082015250565b6000611563601d8361136c565b915061156e8261152d565b602082019050919050565b6000602082019050818103600083015261159281611556565b9050919050565b60006060820190506115ae60008301866111a7565b6115bb60208301856111a7565b6115c8604083018461126f565b949350505050565b7f73656c6c6572206e6f7420617070726f76656400000000000000000000000000600082015250565b600061160660138361136c565b9150611611826115d0565b602082019050919050565b60006020820190508181036000830152611635816115f9565b9050919050565b7f6275796572206e6f7420617070726f7665640000000000000000000000000000600082015250565b600061167260128361136c565b915061167d8261163c565b602082019050919050565b600060208201905081810360008301526116a181611665565b9050919050565b7f6c656e646572206e6f7420617070726f76656400000000000000000000000000600082015250565b60006116de60138361136c565b91506116e9826116a8565b602082019050919050565b6000602082019050818103600083015261170d816116d1565b9050919050565b600081905092915050565b50565b600061172f600083611714565b915061173a8261171f565b600082019050919050565b600061175082611722565b9150819050919050565b600060408201905061176f60008301856111a7565b61177c602083018461126f565b939250505056fea26469706673582212204b40e86552cb1008612c36d7f0b0215cf4f400e32faf4bbaf8e61a4f726a7a1c64736f6c63430008180033",
  "devdoc": {
    "kind": "dev",
    "methods": {},
    "version": 1
  },
  "userdoc": {
    "kind": "user",
    "methods": {},
    "version": 1
  },
  "storageLayout": {
    "storage": [
      {
        "astId": 2946,
        "contract": "contracts/realEstate.sol:RealEstate",
        "label": "nftAddress",
        "offset": 0,
        "slot": "0",
        "type": "t_address"
      },
      {
        "astId": 2948,
        "contract": "contracts/realEstate.sol:RealEstate",
        "label": "seller",
        "offset": 0,
        "slot": "1",
        "type": "t_address"
      },
      {
        "astId": 2950,
        "contract": "contracts/realEstate.sol:RealEstate",
        "label": "lender",
        "offset": 0,
        "slot": "2",
        "type": "t_address"
      },
      {
        "astId": 2952,
        "contract": "contracts/realEstate.sol:RealEstate",
        "label": "inspector",
        "offset": 0,
        "slot": "3",
        "type": "t_address"
      },
      {
        "astId": 3024,
        "contract": "contracts/realEstate.sol:RealEstate",
        "label": "buyer",
        "offset": 0,
        "slot": "4",
        "type": "t_mapping(t_uint256,t_address)"
      },
      {
        "astId": 3028,
        "contract": "contracts/realEstate.sol:RealEstate",
        "label": "purchasePrice",
        "offset": 0,
        "slot": "5",
        "type": "t_mapping(t_uint256,t_uint256)"
      },
      {
        "astId": 3032,
        "contract": "contracts/realEstate.sol:RealEstate",
        "label": "whatItCosts",
        "offset": 0,
        "slot": "6",
        "type": "t_mapping(t_uint256,t_uint256)"
      },
      {
        "astId": 3036,
        "contract": "contracts/realEstate.sol:RealEstate",
        "label": "isListed",
        "offset": 0,
        "slot": "7",
        "type": "t_mapping(t_uint256,t_bool)"
      },
      {
        "astId": 3042,
        "contract": "contracts/realEstate.sol:RealEstate",
        "label": "approval",
        "offset": 0,
        "slot": "8",
        "type": "t_mapping(t_uint256,t_mapping(t_address,t_bool))"
      },
      {
        "astId": 3046,
        "contract": "contracts/realEstate.sol:RealEstate",
        "label": "inspectionPassed",
        "offset": 0,
        "slot": "9",
        "type": "t_mapping(t_uint256,t_bool)"
      }
    ],
    "types": {
      "t_address": {
        "encoding": "inplace",
        "label": "address",
        "numberOfBytes": "20"
      },
      "t_bool": {
        "encoding": "inplace",
        "label": "bool",
        "numberOfBytes": "1"
      },
      "t_mapping(t_address,t_bool)": {
        "encoding": "mapping",
        "key": "t_address",
        "label": "mapping(address => bool)",
        "numberOfBytes": "32",
        "value": "t_bool"
      },
      "t_mapping(t_uint256,t_address)": {
        "encoding": "mapping",
        "key": "t_uint256",
        "label": "mapping(uint256 => address)",
        "numberOfBytes": "32",
        "value": "t_address"
      },
      "t_mapping(t_uint256,t_bool)": {
        "encoding": "mapping",
        "key": "t_uint256",
        "label": "mapping(uint256 => bool)",
        "numberOfBytes": "32",
        "value": "t_bool"
      },
      "t_mapping(t_uint256,t_mapping(t_address,t_bool))": {
        "encoding": "mapping",
        "key": "t_uint256",
        "label": "mapping(uint256 => mapping(address => bool))",
        "numberOfBytes": "32",
        "value": "t_mapping(t_address,t_bool)"
      },
      "t_mapping(t_uint256,t_uint256)": {
        "encoding": "mapping",
        "key": "t_uint256",
        "label": "mapping(uint256 => uint256)",
        "numberOfBytes": "32",
        "value": "t_uint256"
      },
      "t_uint256": {
        "encoding": "inplace",
        "label": "uint256",
        "numberOfBytes": "32"
      }
    }
  }
}